:020000044000BA
:10000000130110001311F10113010120EF00400949
:10001000930105006F000000130101FD23348102EC
:100020001304010393070500232EF4FC930710002B
:100030002326F4FE930710002324F4FE232204FE5B
:100040006F0040038327C4FE13870700832784FEC5
:10005000BB07F7002320F4FE832784FE2326F4FE4B
:10006000832704FE2324F4FE832744FE9B87170086
:100070002322F4FE832744FE138707008327C4FD51
:100080001B0707009B870700E34EF7FA8327C4FE90
:100090001385070003348102130101036780000008
:1000A000130101FE233C11002338810013040102D7
:1000B00013057000EFF05FF6930705002326F4FEAA
:1000C0008327C4FE138507008330810103340101B7
:0800D00013010102678000002A
:0400000540000000B7
:00000001FF
